{
  "contractName": "ProofLife",
  "abi": [
    {
      "constant": true,
      "inputs": [
        {
          "name": "",
          "type": "uint256"
        }
      ],
      "name": "scribesAccounts",
      "outputs": [
        {
          "name": "",
          "type": "address"
        }
      ],
      "payable": false,
      "stateMutability": "view",
      "type": "function"
    },
    {
      "constant": false,
      "inputs": [
        {
          "name": "_address",
          "type": "address"
        },
        {
          "name": "_firstName",
          "type": "string"
        },
        {
          "name": "_lastName",
          "type": "string"
        }
      ],
      "name": "setScribe",
      "outputs": [],
      "payable": false,
      "stateMutability": "nonpayable",
      "type": "function"
    },
    {
      "constant": true,
      "inputs": [],
      "name": "getScribes",
      "outputs": [
        {
          "name": "",
          "type": "address[]"
        }
      ],
      "payable": false,
      "stateMutability": "view",
      "type": "function"
    },
    {
      "constant": true,
      "inputs": [
        {
          "name": "_address",
          "type": "address"
        }
      ],
      "name": "getScribe",
      "outputs": [
        {
          "name": "",
          "type": "string"
        },
        {
          "name": "",
          "type": "string"
        }
      ],
      "payable": false,
      "stateMutability": "view",
      "type": "function"
    },
    {
      "constant": false,
      "inputs": [
        {
          "name": "_ipfsHash",
          "type": "string"
        },
        {
          "name": "_hashProof",
          "type": "string"
        }
      ],
      "name": "setProof",
      "outputs": [],
      "payable": false,
      "stateMutability": "nonpayable",
      "type": "function"
    },
    {
      "constant": true,
      "inputs": [],
      "name": "getCountProof",
      "outputs": [
        {
          "name": "",
          "type": "uint256"
        }
      ],
      "payable": false,
      "stateMutability": "view",
      "type": "function"
    },
    {
      "constant": true,
      "inputs": [
        {
          "name": "_index",
          "type": "uint256"
        }
      ],
      "name": "getProof",
      "outputs": [
        {
          "components": [
            {
              "name": "ipfsHash",
              "type": "string"
            },
            {
              "name": "hashProof",
              "type": "string"
            }
          ],
          "name": "",
          "type": "tuple"
        }
      ],
      "payable": false,
      "stateMutability": "view",
      "type": "function"
    }
  ],
  "bytecode": "0x608060405234801561001057600080fd5b50610e75806100206000396000f3fe608060405260043610610083576000357c0100000000000000000000000000000000000000000000000000000000900463ffffffff16806311149ada146100885780632177a36f146100c557806357e528b5146100f05780637a81de041461012e578063a1465b881461016b578063aea31fc714610194578063eb4a2935146101bd575b600080fd5b34801561009457600080fd5b506100af60048036036100aa9190810190610af9565b6101e8565b6040516100bc9190610cbf565b60405180910390f35b3480156100d157600080fd5b506100da6103a0565b6040516100e79190610ce1565b60405180910390f35b3480156100fc57600080fd5b50610117600480360361011291908101906109e5565b6103ea565b604051610125929190610c88565b60405180910390f35b34801561013a57600080fd5b5061015560048036036101509190810190610af9565b6105b0565b6040516101629190610c4b565b60405180910390f35b34801561017757600080fd5b50610192600480360361018d9190810190610a0e565b6105ee565b005b3480156101a057600080fd5b506101bb60048036036101b69190810190610a8d565b6106ce565b005b3480156101c957600080fd5b506101d261079a565b6040516101df9190610c66565b60405180910390f35b6101f0610828565b600260003373ffffffffffffffffffffffffffffffffffffffff1673ffffffffffffffffffffffffffffffffffffffff1681526020019081526020016000208281548110151561023c57fe5b9060005260206000209060020201604080519081016040529081600082018054600181600116156101000203166002900480601f0160208091040260200160405190810160405280929190818152602001828054600181600116156101000203166002900480156102ee5780601f106102c3576101008083540402835291602001916102ee565b820191906000526020600020905b8154815290600101906020018083116102d157829003601f168201915b50505050508152602001600182018054600181600116156101000203166002900480601f0160208091040260200160405190810160405280929190818152602001828054600181600116156101000203166002900480156103905780601f1061036557610100808354040283529160200191610390565b820191906000526020600020905b81548152906001019060200180831161037357829003601f168201915b5050505050815250509050919050565b6000600260003373ffffffffffffffffffffffffffffffffffffffff1673ffffffffffffffffffffffffffffffffffffffff16815260200190815260200160002080549050905090565b6060806000808473ffffffffffffffffffffffffffffffffffffffff1673ffffffffffffffffffffffffffffffffffffffff1681526020019081526020016000206000016000808573ffffffffffffffffffffffffffffffffffffffff1673ffffffffffffffffffffffffffffffffffffffff168152602001908152602001600020600101818054600181600116156101000203166002900480601f0160208091040260200160405190810160405280929190818152602001828054600181600116156101000203166002900480156105045780601f106104d957610100808354040283529160200191610504565b820191906000526020600020905b8154815290600101906020018083116104e757829003601f168201915b50505050509150808054600181600116156101000203166002900480601f0160208091040260200160405190810160405280929190818152602001828054600181600116156101000203166002900480156105a05780601f10610575576101008083540402835291602001916105a0565b820191906000526020600020905b81548152906001019060200180831161058357829003601f168201915b5050505050905091509150915091565b6001818154811015156105bf57fe5b906000526020600020016000915054906101000a900473ffffffffffffffffffffffffffffffffffffffff1681565b60008060008573ffffffffffffffffffffffffffffffffffffffff1673ffffffffffffffffffffffffffffffffffffffff168152602001908152602001600020905082816000019080519060200190610648929190610842565b5081816001019080519060200190610661929190610842565b5060018490806001815401808255809150509060018203906000526020600020016000909192909190916101000a81548173ffffffffffffffffffffffffffffffffffffffff021916908373ffffffffffffffffffffffffffffffffffffffff1602179055505050505050565b6106d6610828565b6040805190810160405280848152602001838152509050600260003373ffffffffffffffffffffffffffffffffffffffff1673ffffffffffffffffffffffffffffffffffffffff168152602001908152602001600020819080600181540180825580915050906001820390600052602060002090600202016000909192909190915060008201518160000190805190602001906107749291906108c2565b5060208201518160010190805190602001906107919291906108c2565b50505050505050565b6060600180548060200260200160405190810160405280929190818152602001828054801561081e57602002820191906000526020600020905b8160009054906101000a900473ffffffffffffffffffffffffffffffffffffffff1673ffffffffffffffffffffffffffffffffffffffff16815260200190600101908083116107d4575b5050505050905090565b604080519081016040528060608152602001606081525090565b828054600181600116156101000203166002900490600052602060002090601f016020900481019282601f1061088357805160ff19168380011785556108b1565b828001600101855582156108b1579182015b828111156108b0578251825591602001919060010190610895565b5b5090506108be9190610942565b5090565b828054600181600116156101000203166002900490600052602060002090601f016020900481019282601f1061090357805160ff1916838001178555610931565b82800160010185558215610931579182015b82811115610930578251825591602001919060010190610915565b5b50905061093e9190610942565b5090565b61096491905b80821115610960576000816000905550600101610948565b5090565b90565b60006109738235610dcc565b905092915050565b600082601f830112151561098e57600080fd5b81356109a161099c82610d29565b610cfc565b915080825260208301602083018583830111156109bd57600080fd5b6109c8838284610de8565b50505092915050565b60006109dd8235610dde565b905092915050565b6000602082840312156109f757600080fd5b6000610a0584828501610967565b91505092915050565b600080600060608486031215610a2357600080fd5b6000610a3186828701610967565b935050602084013567ffffffffffffffff811115610a4e57600080fd5b610a5a8682870161097b565b925050604084013567ffffffffffffffff811115610a7757600080fd5b610a838682870161097b565b9150509250925092565b60008060408385031215610aa057600080fd5b600083013567ffffffffffffffff811115610aba57600080fd5b610ac68582860161097b565b925050602083013567ffffffffffffffff811115610ae357600080fd5b610aef8582860161097b565b9150509250929050565b600060208284031215610b0b57600080fd5b6000610b19848285016109d1565b91505092915050565b610b2b81610d90565b82525050565b6000610b3c82610d62565b808452602084019350610b4e83610d55565b60005b82811015610b8057610b64868351610b22565b610b6d82610d83565b9150602086019550600181019050610b51565b50849250505092915050565b6000610b9782610d78565b808452610bab816020860160208601610df7565b610bb481610e2a565b602085010191505092915050565b6000610bcd82610d6d565b808452610be1816020860160208601610df7565b610bea81610e2a565b602085010191505092915050565b60006040830160008301518482036000860152610c158282610bc2565b91505060208301518482036020860152610c2f8282610bc2565b9150508091505092915050565b610c4581610dc2565b82525050565b6000602082019050610c606000830184610b22565b92915050565b60006020820190508181036000830152610c808184610b31565b905092915050565b60006040820190508181036000830152610ca28185610b8c565b90508181036020830152610cb68184610b8c565b90509392505050565b60006020820190508181036000830152610cd98184610bf8565b905092915050565b6000602082019050610cf66000830184610c3c565b92915050565b6000604051905081810181811067ffffffffffffffff82111715610d1f57600080fd5b8060405250919050565b600067ffffffffffffffff821115610d4057600080fd5b601f19601f8301169050602081019050919050565b6000602082019050919050565b600081519050919050565b600081519050919050565b600081519050919050565b6000602082019050919050565b6000610d9b82610da2565b9050919050565b600073ffffffffffffffffffffffffffffffffffffffff82169050919050565b6000819050919050565b6000610dd782610da2565b9050919050565b6000819050919050565b82818337600083830152505050565b60005b83811015610e15578082015181840152602081019050610dfa565b83811115610e24576000848401525b50505050565b6000601f19601f830116905091905056fea265627a7a723058204b16d42e6845d65f585747730531ab74feca1a6ca756ec859c2a643fb92b79896c6578706572696d656e74616cf50037",
  "source": "pragma solidity 0.5.0;\npragma experimental ABIEncoderV2;\n\ncontract ProofLife {\n\n    struct Proof {\n        string ipfsHash;\n        string hashProof;\n    }\n\n    struct Scribe {\n        string firstName;\n        string lastName;\n    }\n\n    mapping (address => Scribe) scribes;\n    address[] public scribesAccounts;\n\n    mapping (address => Proof[]) proofs;\n\n    function setScribe(address _address, string memory _firstName, string memory _lastName) public {\n        Scribe storage scribe = scribes[_address];\n\n        scribe.firstName = _firstName;\n        scribe.lastName = _lastName;\n\n        scribesAccounts.push(_address);\n    }\n\n    function getScribes() public view returns(address[] memory) {\n        return scribesAccounts;\n    }\n\n    function getScribe(address _address) public view returns (string memory, string memory) {\n        return (scribes[_address].firstName, scribes[_address].lastName);\n    }\n\n    function setProof(string memory _ipfsHash, string memory _hashProof) public {\n        Proof memory proof = Proof(_ipfsHash, _hashProof);\n        proofs[msg.sender].push(proof);\n    }\n\n    function getCountProof() public view returns (uint256) {\n        return proofs[msg.sender].length;\n    }\n\n    function getProof(uint256 _index) public view returns (Proof memory) {\n        return proofs[msg.sender][_index];\n    }\n}\n",
  "sourcePath": "/Users/joseluiscasella/DEV/south/demo-concept/contracts/ProofLife.sol",
  "compiler": {
    "name": "solc",
    "version": "0.5.0+commit.1d4f565a.Emscripten.clang"
  },
  "schemaVersion": "3.0.1",
  "updatedAt": "2019-01-05T18:40:17.229Z",
  "devdoc": {
    "methods": {}
  },
  "userdoc": {
    "methods": {}
  }
}